:10FC00000C943E7E0C945B7E0C945B7E0C945B7E2D
:10FC10000C945B7E0C945B7E0C945B7E0C945B7E00
:10FC20000C945B7E0C945B7E0C945B7E0C945B7EF0
:10FC30000C945B7E0C945B7E0C945B7E0C945B7EE0
:10FC40000C945B7E0C945B7E0C945B7E0C945B7ED0
:10FC50000C945B7E0C945B7E0C945B7E0C945B7EC0
:10FC60000C945B7E0C945B7E0C945B7E0C945B7EB0
:10FC70000C945B7E0C945B7E0C945B7E11241FBE07
:10FC8000CFEFD0E1DEBFCDBF11E0A0E0B1E0E8E909
:10FC9000FFEF02C005900D92A630B107D9F712E030
:10FCA000A6E0B1E001C01D92AE30B107E1F70E94BD
:10FCB000D87E0C94CA7F0C94007E1F93DC01609167
:10FCC000090170910A0183E0FB0180935700E895D8
:10FCD00007B600FCFDCF10920D0210920C0211E04D
:10FCE00015C0FD01E20FF31F518140E0808190E0DB
:10FCF000842B952BF9010C0110935700E8951124E2
:10FD00002E5F3F4F30930D0220930C0220910C0286
:10FD100030910D022F3F310521F318F385E0FB01EF
:10FD200080935700E89507B600FCFDCF1F9108951A
:10FD300081E180935700E895E0E0F0E009950895AF
:10FD40002B9A8093C6008091C00086FFFCCF8091E3
:10FD5000C00080648093C0002B9808958091C000FB
:10FD600087FFFCCF8091C6000895CF93DF93DC011D
:10FD7000E0E8F0E080E090E0C1E2D0E15C9140E0BA
:10FD80008427952768E09C01220F331F97FF02C04C
:10FD90002C273D276150C901B1F7319711F0119619
:10FDA000EDCF30930B0220930801DF91CF9108959E
:10FDB000DF92EF92FF920F931F93F89404B603FE25
:10FDC00003C084B7877F84BF80E885BF85BF28E1F3
:10FDD0000FB6F89420936000109260000FBE8AE185
:10FDE00096E09093890080938800109280008DE0C7
:10FDF00080938100239A2B98579A1092C0002093E9
:10FE0000C10086E08093C2001092C50089E1809312
:10FE1000C4001092080115E0B19B0CC0B19A80910A
:10FE200008018530E9F08BB180588BB9115011F47D
:10FE30000E94987E8091C00087FFEECF8091C6001F
:10FE400020910801E22FF0E0E050FF4F90818917E8
:10FE500021F42F5F20930801DFCF10920801DCCF3F
:10FE600012E3B19B0BC0B19A83E40E94A07E8BB1D8
:10FE700080588BB9115011F40E94987E8091C00077
:10FE800087FFEFCF8091C600813059F71092810033
:10FE9000109207011092060110920A0110920901B6
:10FEA000DD24EE24D3940E94AE7E80930B020E9448
:10FEB000AE7E982F90959093080180910B02D816F2
:10FEC00009F04FC0D91609F04CC050E8F52E00914A
:10FED0000601109107010E94AE7EF801E55FFE4F1A
:10FEE00080830F5F1F4F1093070100930601FA9460
:10FEF00071F70E94AE7E182F0E94AE7E082F80916F
:10FF000006019091070185579F4F0E94B57E809111
:10FF10000B02181731F580910801081711F580912F
:10FF20000601909107018F3F910599F090F08BE0C9
:10FF300091E00E945D7E8091090190910A018050BC
:10FF40009F4F90930A01809309011092070110922C
:10FF5000060186E00E94A07E8BB180588BB9EE240A
:10FF600007C085E10E94A07EE39483E08E1528F00F
:10FF70000E94AE7E843009F095CF86E00E94A07E7C
:10FF80000E94987E80E090E01F910F91FF90EF908B
:08FF9000DF900895F894FFCF03
:06FF9800415652554200E3
:040000030000FC00FD
:00000001FF
