S0080000666C617368E9
S11300000C9456060C94B0350C9473060C94730639
S11300100C9473060C9473060C9473060C94730678
S11300200C9473060C94B0290C9473060C94730608
S11300300C9473060C9473060C9473060C94730658
S11300400C9473060C9473060C9473060C94730648
S11300500C94042A0C943C2A0C947C2A0C94730669
S11300600C94040E0C9473060C949E220C94730648
S11300700C9473060C9473060C9473067F11601130
S11300806011AA1263116611AD1269116C11AD12DF
S11300906F11A612A612A612A612A6127211771139
S11300A0AD12A612A612A612A612A612A612A61285
S11300B0A612A612A612A612A612A61282118511C3
S11300C08811B0128B11B312A611B011B311E31140
S11300D0AD12A612A612A612A612A612B611B61236
S11300E0B612B612B612B612B612B612A612A612EC
S11300F0A612A612A612A612A612A612C211C41104
S1130100C611CA11CC11CE11D011A612A612A61274
S1130110A612A612A612A612A612A612D211D411C3
S1130120D611D811DA11DC11DE11A612A612A6120C
S1130130A612A612A612A612A612E011E311ED1140
S1130140B912AD12B912AD12B912AD12A612A6129D
S1130150A612A612A612A612A612A612F111BC127B
S1130160F411F711FA11FF11B012A612A612A61279
S1130170A612A612A612A612A612A61204120912FA
S11301800E12131218121D12221227122C123112DF
S113019036123B12A612A612A612A612401243123F
S11301A04612B312AD12B91249124C12BF12A61262
S11301B0A612A612A612A612A612A612C212C21243
S11301C0BC12BC12BC12BC124F12BF12BF12A61238
S11301D0A612A612A612A612A612A612B312B31241
S11301E0B312B312B312B31252125512AA12A612B8
S11301F0A612A612A612A612A612A61258126112CE
S1130200641267126A126D1270127312A612A61289
S1130210A612A612A612A612A612A612C512791228
S11302207C127F128212851288128B128E12A612F1
S1130230A612A612A612A612A61276129112941251
S113024097129A129D12A012A312C812C812A612D3
S1130250A612A612A612A612A612A612CB12CB1290
S1130260C512A612A612A612A612A612A612A612AB
S1130270A612A612A612AD12AD120D0A726F6F74F9
S1130280406D65646961746F723A7E3E20003C552E
S11302906E6B6E6F776E20636F6D6D616E642C2074
S11302A0747279203F20666F722068656C702E002E
S11302B0486176652061206C6F74206F66206675D6
S11302C06E2E2E2E000D0A4D6178696D756D203DE0
S11302D02025646D560D0A41766572616765203D7F
S11302E02025646D560D0A4D696E696D756D203D4E
S11302F02025646D560D0A007C202533642E25309C
S11303003264560D0A00546F74616C207C202533CE
S1130310642E253032645620003D3D3D3D3D3D3D3B
S11303203D3D3D3D3D3D3D3D3D3D3D3D3D3D3D3DF9
S11303303D3D0D0A00253564207C202535646D562D
S1130340207C202535646D560D0A002043656C6CB5
S1130350207C20426C6F636B2041207C20426C6FB8
S1130360636B20420D0A0050657273697374656E85
S11303707420646174612073617665642E00506535
S11303807273697374656E742064617461206C6F38
S1130390616465642E0066696E6973686564004112
S11303A0004D65646961746F722063757272656E65
S11303B0743A200020002D0030002E00446973613F
S11303C0626C65642062616C616E63657200456E87
S11303D061626C65642062616C616E6365720020A9
S11303E062797465730D0A0062616C616E63657293
S11303F05F7468726561642773206D61782073741B
S113040061636B2075736167653A200020627974BB
S113041065730D0A00636F6D6D616E645F7468725D
S11304206561642773206D617820737461636B2048
S113043075736167653A20004D65646961746F7214
S1130440204144432063757272656E7420323030EB
S1130450206F66667365743A20000A0D004D65646A
S11304606961746F72204144432063757272656ED2
S113047074203130206F66667365743A20000A0D6B
S1130480004D65646961746F722041444320637553
S11304907272656E742031206F66667365743A20DB
S11304A0000A0D004D65646961746F722041444314
S11304B020766F6C74616765206F66667365743A45
S11304C0200020002D00557365202766756C6C276D
S11304D02C20277361766527206F7220276F66664C
S11304E02720617320617267756D656E7400556EA7
S11304F06B6E6F776E0A0D0046756C6C0A0D0053B7
S11305006176650A0D004F66660A0D0043757272C6
S1130510656E742073746174652069733A200053A6
S11305207769746368656420746F20706F7765728F
S1130530207374617465202773617665270053778F
S113054069746368656420746F20706F77657220C6
S11305507374617465202766756C6C270053776922
S1130560746368656420746F20706F77657220739C
S11305707461746520276F6666270041680A0D0060
S1130580546F74616C206469736368617267653A5F
S113059020200041680A0D00546F74616C20636868
S11305A0617267653A20202020200041680A0D000E
S11305B04D696E696D616C20636170616369747902
S11305C03A200041680A0D004E6F6D696E616C201F
S11305D063617061636974793A200041680A0D00AF
S11305E04D6178696D616C206361706163697479D0
S11305F03A200041680A0D0041637475616C206300
S1130600617061636974793A2020004E65772063D4
S1130610616C6962726174696F6E2076616C756574
S11306203A2025750D0A004F6C642063616C696281
S1130630726174696F6E2076616C75653A202575F8
S11306400D0A004D65646961746F7220726573658B
S11306507474656420636170616369747920746F74
S113066020306D41680D0A000A0D446169737920D8
S1130670636861696E204245523A09302E25303450
S1130680640D0A000A0D446565702064697363682B
S1130690617267652063796C6365733A09000A0DBA
S11306A00A0D436861726765206379636C65733A08
S11306B00909000A0D3E3131302509000A0D3E3189
S11306C030302509000A0D3E39302509000A0D3E57
S11306D038302509000A0D3E37302509000A0D3E41
S11306E036302509000A0D3E35302509000A0D3E35
S11306F034302509000A0D3E33302509000A0D3E29
S113070032302509000A0D3E31302509000A0D3C1E
S113071031302509000D0A000D0A4D696E696D75A9
S11307206D203D2025642E25303264000D0A41766B
S11307306572616765203D2025642E253032640092
S11307400D0A4D6178696D756D203D2025642E2557
S1130750303264003D3D3D3D3D3D3D3D3D3D3D3DF3
S11307603D3D3D3D3D3D3D3D3D3D3D3D3D3D3D0DE5
S11307700A00253764207C202534642E2530326419
S1130780207C202534642E253032640D0A00205349
S1130790656E736F72207C20426C6F636B20412006
S11307A07C20426C6F636B20420D0A0056004D653D
S11307B0646961746F7220766F6C746167653A2046
S11307C000557365202772657374617274272C2039
S11307D027726573657427206F72202773656172B1
S11307E063682720617320617267756D656E74009C
S11307F06F775F73656172636820666F756E6420DE
S11308002564206F6E65207769726520646576695A
S113081063652573006F6E65207769726520646572
S1130820763A20253032783A253032783A253032FB
S1130830783A253032783A253032783A2530327891
S11308403A253032783A253032780D0A006F775FD6
S113085072657365742072657475726E65642025A3
S113086064006F775F72657374617274207265746B
S113087075726E6564202564004665686C65722037
S1130880696E20646572204261747465726965C31F
S1130890BC62657277616368756E670A0D00556E98
S11308A073796D6D657472697363686520537061E3
S11308B06E6E756E67656E0A0D005A7520746965F3
S11308C06665204661687274656D706572617475E1
S11308D0720A0D005A7520686F6865204661687257
S11308E074656D706572617475720A0D005A7520B5
S11308F07469656665204C61646574656D706572C4
S1130900617475720A0D005A7520686F6865204C11
S113091061646574656D706572617475720A0D0049
S1130920426174746572696520656E746C61646596
S11309306E0A0D00426174746572696520766F6C8D
S11309406C0A0D0042617474657269652052656CAD
S1130950616973206F6666656E0A0D005A752074AE
S11309606965666520466168727370616E6E756E46
S1130970670A0D005A7520686F6865204C616465CC
S11309807370616E6E756E670A0D005A7520686F1C
S113099068657220466168727374726F6D0A0D0027
S11309A05A7520686F686572204C6164657374724F
S11309B06F6D0A0D0046616872656E206E6963682A
S11309C0742065726C617562740A0D004C61647503
S11309D06E67206E696368742065726C61756274F9
S11309E00A0D0052656B757065726174696F6E20D3
S11309F06E696368742065726C617562740A0D00B7
S1130A000A0D4261747465727920696E666F3A0AE0
S1130A100D003F3A0948656C700A0D00783A0945A3
S1130A207869740A0D00753A09566F6C74616765CC
S1130A300A0D00743A0954656D70657261747572BB
S1130A400A0D00733A0953746174697374696373AA
S1130A500A0D00723A0952657365740A0D00713A01
S1130A600943617061636974790A0D00703A095031
S1130A706F776572207374617465207B66756C6C26
S1130A807C736176657C6F66667D0A0D006D094D29
S1130A90656D6F727920696E666F0A0D00693A0997
S1130AA043757272656E740A0D00643A0944617488
S1130AB06520616E642074696D650A0D00633A09EE
S1130AC043656C6C20766F6C74616765730A0D0006
S1130AD0423A094261747465727920696E666F0ADC
S1130AE00D00623A095265626F6F740A0D000A0DB7
S1130AF0417661696C61626C6520636F6D6D616ED6
S1130B0064733A0A0D0000070E091C1B1215383FC6
S1130B10363124232A2D70777E796C6B6265484FB9
S1130B20464154535A5DE0E7EEE9FCFBF2F5D8DFA9
S1130B30D6D1C4C3CACD90979E998C8B8285A8AF19
S1130B40A6A1B4B3BABDC7C0C9CEDBDCD5D2FFF809
S1130B50F1F6E3E4EDEAB7B0B9BEABACA5A28F8879
S1130B60818693949D9A2720292E3B3C35321F1869
S1130B70111603040D0A5750595E4B4C45426F68D9
S1130B80616673747D7A898E878095929B9CB1B6D9
S1130B90BFB8ADAAA3A4F9FEF7F0E5E2EBECC1C639
S1130BA0CFC8DDDAD3D4696E676075727B7C515629
S1130BB05F584D4A4344191E171005020B0C212699
S1130BC02F283D3A33344E49404752555C5B767189
S1130BD0787F6A6D64633E39303722252C2B0601F9
S1130BE0080F1A1D1413AEA9A0A7B2B5BCBB9691E9
S1130BF0989F8A8D8483DED9D0D7C2C5CCCBE6E159
S1130C00E8EFFAFDF4F3CC07BA07A007800756070C
S1130C102207E20694063A06D6056805F20478042B
S1130C20FE0387031703AF025102FD01B3017201F2
S1130C303B010C01E500C300A6008E0079006800AA
S1130C405A004D0043003A0032000A0D4D696E69A6
S1130C506D756D2063757272656E743A0A0D004D80
S1130C606178696D756D2063757272656E743A0A88
S1130C700D0025642E25642E256420253032643A27
S1130C80253032643A25303264004A10A00F280F10
S1130C90CE0E740E4C0E100EF20DC00D840D800C91
S1130CA06364696E6F70737578585B0011241FBE9E
S1130CB0CFEFD0E1DEBFCDBF11E0A0E0B1E0EEE4C4
S1130CC0FBE702C005900D92A835B107D9F71DE0E6
S1130CD0A8E5B1E001C01D92A635B107E1F70E9475
S1130CE06C080C94A53D0C94000084E680930001EC
S1130CF00895882311F085E601C084E680930001FD
S1130D000895809358010895809158010895809121
S1130D105801853041F085E00E94B910882319F408
S1130D2083E00E94D210089580915801853021F407
S1130D3089E00E94EA10089583E00E94EA108091FD
S1130D4058018E3019F481E00E94EA100895EF9260
S1130D50FF920F931F9310923A01E090BB09F09019
S1130D60BC090027F7FC0095102F0E944424C801F9
S1130D70B70128EA31E640E050E00E944B369B017F
S1130D80AC018AE055954795379527958A95D1F713
S1130D902057374140405040C9011F910F91FF90A7
S1130DA0EF9008950E9431109C0189E7283138079B
S1130DB020F486E00E94EA1012C082E92C3738073A
S1130DC020F480915C01882339F028573B4958F47A
S1130DD080915C01813039F486E00E94D21085E074
S1130DE00E94D210089586E00E94D21085E00E94ED
S1130DF0EA100895809158018E3038F4863008F056
S1130E005EC0853009F07CC007C08E3009F46DC027
S1130E10813108F075C053C00E94372F8053984F1A
S1130E2024F48DE00E94EA1003C08DE00E94D210E9
S1130E300E940A2F8C57954124F48CE00E94D21012
S1130E4003C08CE00E94EA100E9431102DE780302C
S1130E50920718F40E9483351BC023E8803492075C
S1130E6038F489E00E94EA1086E00E94EA1006C085
S1130E70885E994938F486E00E94D21085E00E9489
S1130E80D21006C086E00E94D21085E00E94EA10CB
S1130E900E946D1427E0813D920724F083E00E94B4
S1130EA0EA1006C08153984F2CF083E00E94D210C0
S1130EB084E016C083E00E94D21084E01BC00E942C
S1130EC0372F97FF04C08BE00E94EA1003C08BE029
S1130ED00E94D2100E940A2F8459914124F48AE07E
S1130EE00E94D21008958AE005C00E946D144D97A7
S1130EF024F083E00E94EA10089583E00E94D21057
S1130F000895809158018A3041F40E946D148A3FFB
S1130F1091051CF488E00E94EA1008950E943D1493
S1130F20855C99401CF088E00E94EA100895CF92F5
S1130F30DF92EF92FF920F931F93DF93CF9300D032
S1130F4000D000D0CDB7DEB723E0E22EF12CEC0EBA
S1130F50FD1E95E0C92ED12CCC0EDD1E8E010F5F37
S1130F601F4FC801B701A6010E941C2E89819A81D6
S1130F700E94F42B0E94E4350E942E1489819A81E8
S1130F800E94F42B6AE070E00E947636AB0181E3A4
S1130F9061E30E94D3128B819C810E94F42B6AE04E
S1130FA070E00E947636AB0181E362E30E94D312C3
S1130FB08D819E810E94F42B6AE070E00E94763657
S1130FC0AB0181E364E30E94D312C801B701A60117
S1130FD00E94642F49815A818AE261E30E94D312FC
S1130FE04B815C818AE262E30E94D3124D815E816F
S1130FF08AE264E30E94D31226960FB6F894DEBF09
S11310000FBECDBFCF91DF911F910F91FF90EF9055
S1131010DF90CF900895CF92DF92EF92FF920F93DB
S11310201F93E090920CF090930C0091940C10910B
S1131030950CC0908903D0908A032DE730E040E0FE
S113104050E00E944B3622E330E040E050E00E9442
S11310509D362E0D3F1D401F511FF6012283338301
S113106044835583C801B7010E947A231F910F91CD
S1131070FF90EF90DF90CF90089580915B01880FEF
S113108080935B010E94A735882329F080915B013E
S1131090816080935B0180915B018F7080935B0121
S11310A08F3041F480915A018130A9F081E080931E
S11310B05A010895882379F480915A01882359F0BC
S11310C010925A0180915801882319F00E948335A7
S11310D008950E9485350895EF92FF920F931F9310
S11310E00E94663504B603FE03C084B7877F84BFBD
S11310F088E10FB6F89480936000109260000FBEF0
S11311008DB79EB760E070E00E94AC230E94A029D6
S113111084E690E00E94BB210E94382B82E00E946A
S1131120622B0E94080D8BE10E94120D8DE00E943B
S1131130120D8FE00E94120D81E08093BA09809312
S1131140B9090E948B350E94853506C00E943D086E
S113115084E690E00E94BB218091CE0C8823B1F3F9
S113116081E10E94120D0E9487350E94211087E0C0
S11311700E94EA100E94FA1F0E944A1560EA76E86B
S113118081E090E00E9418230E94422D0E94663163
S11311900E9497070E94B40E42E0E42EFF24F394C9
S11311A090910001992369F48091B909882359F039
S11311B00E949F350E94D7201092B9090E94A13540
S11311C005C0953619F09150909300019091B9099A
S11311D08091BA099817E1F1923071F40E948B352D
S11311E00E948F356CE271E080E090E00E940B0871
S11311F087E00E94D21028C0913041F487E00E9419
S1131200EA100E948B350E9491351EC080E00E9436
S1131210B10E0E94833568E873E180E090E00E949B
S11312200B0887E00E94EA100E94913564EF71E098
S113123080E090E00E940B080E948D3568E873E11D
S113124080E090E00E940B088091B9098093BA096C
S113125080915801893009F4D1C08A3070F4853006
S113126059F1863018F48823F1F0F9C0873009F475
S113127051C0883008F0DEC03AC08D3009F4DAC0BD
S11312808E3038F48B3009F4CDC08C3008F0CDC0EA
S1131290C0C08F3009F4DCC08F3008F4CEC0853173
S11312A008F0DBC0DCC00E94311080509D4708F07C
S11312B0D6C00E948335D3C080915901853009F48A
S11312C0CEC01092BD0981E00E94B10E88E00E9458
S11312D0B910882331F40E943D14855C99400CF4C4
S11312E0BEC088E00E94D2100E949707B8C08091C7
S11312F05901863009F4B3C088E00E94B9108823EC
S113130019F00E94833504C0F092BD09F0925C018B
S113131081E09BC080915901873009F48BC00E9401
S113132031108854914748F48091730B9091740B59
S113133001969093740B8093730B0091710B109131
S1131340720B0E943D149801281B390B8091750B78
S11313509091760B8217930720F43093760B2093A9
S1131360750B8091770B9091780B2817390720F42F
S11313703093780B2093770B80916F0B9091700BC7
S113138001969093700B80936F0B8091710B9091E9
S1131390720B6AE070E00E9476368B010E943D1465
S11313A02091710B3091720B201B310BE0E044272C
S11313B05527401B510B821793076CF0FF27E7FD5D
S11313C0F095EE0FFF1FE95AF44F80819181019649
S11313D0918380830FC0EF5FEC3019F0240F351F29
S11313E0EACF80916D0B90916E0B019690936E0BEA
S11313F080936D0B89E00E94D2101CC00E94D2061B
S113140083E00E94B910882351F185E00E94EA101C
S113141026C00E94D2060E9481070E948E07F09285
S1131420BD091DC0F092B9091AC00E9481070E942B
S11314308E0715C0E092B90912C0809159018E300F
S113144071F085E00E94D21082E00E94B10E07C0C4
S11314501092BD0910925C0102C00E94A3358091D4
S113146058018093590164E670E080E090E00E94A6
S11314700B080E943D0894CE089508950F93DF93BE
S1131480CF9300D0CDB7DEB78E7E662311F4816092
S113149001C080618A8382ED898380E3BE016F5F2E
S11314A07F4F42E020E030E000E00E9430230E94C1
S11314B06423883F11F480E001C08FEF0F900F90F8
S11314C0CF91DF910F9108950F9380E362E071E073
S11314D041E020E030E000E00E9430230E946423D9
S11314E0883F11F08FEF01C080E00F910895AF9213
S11314F0BF92CF92DF92EF92FF920F93DF93CF933D
S113150000D00F92CDB7DEB77C016B015A0188E79A
S11315108A83F7018081882311F08FEF8083F7019C
S113152080818B8380E3BE016E5F7F4F42E020E0C9
S113153030E000E00E9430230E94642380E360E0F6
S113154070E040E09E012F5F3F4F01E00E94302396
S11315500E946423883F11F08FEF17C08981282FE0
S113156030E045E0369527954A95E1F7922F917042
S1131570F6019083369527952170F5012083881F05
S11315808827881FF701808380E00F900F900F90C9
S1131590CF91DF910F91FF90EF90DF90CF90BF90AC
S11315A0AF900895EF92FF920F931F93DF93CF9321
S11315B00F92CDB7DEB711E07E010894E11CF11C57
S11315C0198380E360E070E040E0970101E00E944D
S11315D030230E946423883F31F489818E6F8E3FCB
S11315E079F780E001C08FEF0F90CF91DF911F91C9
S11315F00F91FF90EF900895CF92DF92EF92FF92B8
S11316000F931F93DF93CF9300D0CDB7DEB76C0158
S113161011EE198380EF8A8380E37E010894E11C34
S1131620F11CB70142E020E030E000E00E943023EA
S11316300E946423883F51F50E94D20A86E9898377
S113164080E3B70141E020E030E00E9430230E94B3
S11316506423883FD9F419831A8380E3B70142E0F5
S113166020E030E00E9430230E946423883F71F41C
S113167080E360E070E040E0960101E00E943023E6
S11316800E946423883F11F480E001C08FEF0F9023
S11316900F90CF91DF911F910F91FF90EF90DF900A
S11316A0CF900895EF92FF920F931F93DF93CF9300
S11316B000D0CDB7DEB7182F81EE898380EF8A83FF
S11316C080E37E010894E11CF11CB70142E020E0B4
S11316D030E000E00E9430230E946423883F99F4A4
S11316E00E94D20A85EA89831A8380E3B70142E023
S11316F020E030E00E9430230E946423883F19F4E4
S11317000E94D20A01C08FEF0F900F90CF91DF910A
S11317101F910F91FF90EF9008950F931F93DF9304
S1131720CF9300D0CDB7DEB7162F92ED99838B7B84
S113173084608A8380E3BE016F5F7F4F42E020E0D4
S113174030E000E00E9430230E946423883F11F0BF
S11317508FEF03C0812F0E94520B0F900F90CF91F7
S1131760DF911F910F9108950F93DF93CF9300D0D2
S1131770CDB7DEB7882311F48EEF01C08FEF8A83D3
S113178087E8898380E3BE016F5F7F4F42E020E0FA
S113179030E000E00E9430230E946423883F11F06F
S11317A08FEF02C00E94D20A0F900F90CF91DF9169
S11317B00F910895EF92FF920F93DF93CF9300D090
S11317C0CDB7DEB781E00E94B40B81EE898380EF50
S11317D08A8380E37E010894E11CF11CB70142E096
S11317E020E030E000E00E9430230E946423883F20
S11317F0A9F480E360E070E040E0970101E00E941A
S113180030230E946423883F49F4898190E055E0A5
S1131810969587955A95E1F7817001C08FEF0F90E7
S11318200F90CF91DF910F91FF90EF9008950F9358
S1131830DF93CF930F92CDB7DEB780E361E071E021
S113184041E020E030E000E00E9430230E94642365
S1131850883FC1F40E94D20A80E360E070E040E077
S11318609E012F5F3F4F01E00E9430230E946423BA
S1131870883F41F489818C6F8E3F11F08DEF03C056
S113188080E001C08FEF0F90CF91DF910F91089509
S11318903F924F925F926F927F928F929F92AF92FC
S11318A0BF92CF92DF92EF92FF920F931F93DF9339
S11318B0CF9300D00F92CDB7DEB77B015A018823B6
S11318C021F010926501EE24FF24F7018081882322
S11318D011F080E086C00E94170C482F882319F06D
S11318E0109265017FC080EF0E94520B01E0CC246E
S11318F0DD2411E03324339473E0472E512C4C0E35
S11319005D1E62E0662E712C6C0E7D1E4E010894E5
S1131910811C911C80916501081748F41B82ED2DF0
S1131920F0E0E35AFE4F8081812329F003C01B823B
S1131930081709F43B82C201B401A3010E94770A8B
S1131940482F882309F04EC08981882341F48A8175
S1131950882351F48B81882339F4C02E05C081304B
S113196019F48A818130D1F08B81ED2DF0E0813042
S113197029F4E35AFE4F8081812B06C0E35AFE4FBF
S1131980912F90958081892380830F5F110F11F42B
S1131990D39411E0F7E0FD1508F0BCCF0134C1F495
S11319A0C0926501F7011082CC2011F481E080839C
S11319B020E030E0F501E20FF31FD901A35ABE4F36
S11319C08C9180832F5F3F4F2830310599F70AC0EF
S11319D080915D01882321F410926501F701108242
S11319E08EEF482F842F0F900F900F90CF91DF919F
S11319F01F910F91FF90EF90DF90CF90BF90AF9029
S1131A009F908F907F906F905F904F903F9008953C
S1131A1081B1807F81B982B1807F82B987E8809368
S1131A207A000895682F8F7180937C0080917A00EA
S1131A30806480937A0080917A0086FDFCCF809147
S1131A40790040E050E070E080917A0080648093F7
S1131A507A0080917A0086FDFCCF90917800809185
S1131A607900382F20E0F901E90FF11DCF01F1FFD2
S1131A7002C080509440480F591F7F5F703421F793
S1131A80CA0126E0959587952A95E1F760312CF4F3
S1131A906E30A4F46C30DCF00CC06131A1F0613123
S1131AA094F06A51623098F49093680180936701CE
S1131AB00EC090936A018093690109C090936C01F0
S1131AC080936B0104C090936E0180936D018091AB
S1131AD07A008B7F80937A0008958F3089F080316B
S1131AE01CF48D3029F409C0803169F08B3111F078
S1131AF080E00895809167010895809169010895B7
S1131B0080916B01089580916D0108958D3061F08D
S1131B108E302CF4813081F0893081F40BC08F3009
S1131B2039F08B3159F402C08AE0089588EC0895A5
S1131B3081E008958FEF08958BEF089585E008956F
S1131B408F7180937C0087E880937A0080917A007B
S1131B50806480937A0080917A0086FDFCCF809126
S1131B60790020E030E060E080917A008064809326
S1131B707A0080917A0086FDFCCF90917800809164
S1131B807900582F40E0FA01E90FF11DCF01F1FF70
S1131B9002C080509440280F391F6F5F603421F7D2
S1131BA080917A008B7F80937A0046E03595279563
S1131BB04A95E1F7C9010895382F809103018F3FB9
S1131BC011F410926601209166012330E0F4822F13
S1131BD090E0FC01EE0FFF1FE80FF91FE159FE4FE3
S1131BE072836183932F9F7190832F5F209366018B
S1131BF0809103018F3F39F41092030190937C008C
S1131C008FEC80937A0008951F920F920FB60F9273
S1131C1011242F933F934F938F939F93EF93FF93AD
S1131C20809103012091780040917900992787FDE4
S1131C309095FC01EE0FFF1FE80FF91FE159FE4FCD
S1131C400180F281E02D942F80E030E0822B932BF1
S1131C509183808380910301992787FD9095FC01EE
S1131C60EE0FFF1FE80FF91FE159FE4F8081883006
S1131C70B8F080910301992787FD9095FC01EE0F40
S1131C80FF1FE80FF91FE159FE4F0180F281E02D9B
S1131C908081918191FF04C080509440918380831E
S1131CA080910301992787FD9095FC01EE0FFF1F9A
S1131CB0E80FF91FE159FE4F12821182809103014E
S1131CC08F5F8093030180910301833024F5809119
S1131CD00301992787FD9095FC01EE0FFF1FE80F84
S1131CE0F91FE159FE4F81819281892BA1F08091E6
S1131CF00301992787FD9095FC01EE0FFF1FE80F64
S1131D00F91FE159FE4F80818F7180937C008FEC25
S1131D1080937A0003C08FEF80930301FF91EF91CA
S1131D209F918F914F913F912F910F900FBE0F90E4
S1131D301F90189580910301089540E050E0FA0146
S1131D40E758FE4F8081863B31F44F5F5F4F81E05F
S1131D5040305807A1F720E031E0241B350BC901BE
S1131D60089580930401089589E791E066EB70E09B
S1131D7040E051E00E94EC3688E792E06BE57FE0BA
S1131D800E94AC2390937A02809379020895CF92B3
S1131D90DF92EF92FF920F931F93DF93CF9300D0C4
S1131DA000D000D0CDB7DEB793E0E92EF12CEC0ED5
S1131DB0FD1E85E0C82ED12CCC0EDD1E8E010F5FDA
S1131DC01F4FC801B701A6010E941C2E89819A8168
S1131DD00E94F42B6AE070E00E947636AB0181E346
S1131DE061E30E94D3128B819C810E94F42B6AE0F0
S1131DF070E00E947636AB0181E362E30E94D31265
S1131E008D819E810E94F42B6AE070E00E947636F8
S1131E10AB0181E364E30E94D312C801B701A601B8
S1131E200E94642F80910401823021F08091BD09C9
S1131E30882331F08CEA9DE09A8389839E838D8385
S1131E4049815A818AE261E30E94D3124B815C8109
S1131E508AE262E30E94D3124D815E818AE264E3E6
S1131E600E94D31226960FB6F894DEBF0FBECDBFE4
S1131E70CF91DF911F910F91FF90EF90DF90CF9062
S1131E80089584EF91E00E94682C813019F082302B
S1131E9079F403C00E94940608950E948406863053
S1131EA049F081E00E94EA1082E00E946F330895B5
S1131EB00E94870608957F928F929F92AF92BF925D
S1131EC0CF92DF92EF92FF920F931F93DF93CF9302
S1131ED000D000D0CDB7DEB70E94422DF0E17F2EB6
S1131EE0E3E08E2E912C8C0E9D1E5E010894A11CA5
S1131EF0B11C73E0C72E80910401813009F481C0C4
S1131F00823021F0882309F497C0F7CF0E949A35D4
S1131F100E9466310E94C70E80917801882309F0DF
S1131F2054C070927801C501B4010E94802E2981A9
S1131F303A8164E0220F331F6A95E1F73A832983DB
S1131F408B819C8154E0880F991F5A95E1F79C83FB
S1131F508B838C01021B130B44E0169507954A955D
S1131F60E1F73BE7E32E32E0F32EDD248D2D0E94D2
S1131F70DA2B24E0880F991F2A95E1F70115110542
S1131F80D9F029813A81EB81FC81A801420F531FCA
S1131F9060E00EC08217930730F08417950718F499
S1131FA0F70160830BC06F5F200F311F400F511F7B
S1131FB0E217F30778F702C0F7011082D39408946C
S1131FC0E11CF11CF0E6DF1689F68091780181505E
S1131FD0809378010BE712E0FF24F8018081181642
S1131FE02CF4815080838F2D61E002C08F2D60E03E
S1131FF00E94702DF3940F5F1F4FF0E6FF1669F7F0
S113200016C00E949A350E9466310E94C70E8091C4
S11320107801882371F0109278010E94983510E0BD
S1132020812F60E00E94702D1F5F1036C9F70E9457
S1132030E42C0E94410F5FCF0E94182DC09204012E
S11320405ACF1092D3091092D2091092BF0910925C
S1132050BE091092C1091092C00981E08093DB028D
S113206008952091E2023091E30240E050E0609153
S11320707B0B70917C0B80E090E00E944B369B01BF
S1132080AC018FE056954795379527958A95D1F7FA
S1132090245F314040405040C90108956F927F92BF
S11320A08F929F92AF92BF92CF92DF92EF92FF9264
S11320B00F931F935C012091E2023091E30240E010
S11320C050E060907B0B70907C0B88249924C401B1
S11320D0B3010E944B367B018C019FE01695079556
S11320E0F794E7949A95D1F78CE09EEFAFEFBFEFAA
S11320F0E80EF91E0A1F1B1FA4EFB1E0AA0EBB1EB7
S1132100CC24DD24C601B501A40193010E944B3601
S113211024EF31E0E20EF31E970140E050E00E940C
S11321209D3630937C0B20937B0B1F910F91FF9076
S1132130EF90DF90CF90BF90AF909F908F907F9063
S11321406F900895892B11F082E001C081E08093A3
S1132150B90908950F931F9310923A011091D2096F
S11321600091D3090E944424812F902F1F910F9135
S113217008951F9310923A0110E021E030E002C06C
S1132180220F331F8A95E2F78091D2099091D309E7
S113219028233923232B09F011E00E944424812FA2
S11321A01F91089510923A0121E030E002C0220FFD
S11321B0331F8A95E2F7209530958091D20990914A
S11321C0D309282339233093D3092093D2090E94B9
S11321D04424089510923A0121E030E002C0220F15
S11321E0331F8A95E2F78091D2099091D309282B65
S11321F0392B3093D3092093D2090E9444240895A3
S11322000F931F930E946D148C012091E202309170
S1132210E30240E050E060917B0B70917C0B80E026
S113222090E00E944B362FE09695879577956795B9
S11322302A95D1F7645F7140804090409B01029FD2
S1132240B001039F700D129F700D1124882777FD34
S11322508095982F20E335E740E050E00E94BF3698
S1132260C9011F910F9108951F93182F8153843032
S113227018F087E00E946F33123329F0143329F0E9
S1132280113329F407C081E006C082E004C087E06E
S11322900E946F3380E01F910895CF93DF931092D3
S11322A03A0190E0FC013197EF3FF10508F04EC18F
S11322B0E25CFF4FEE0FFF1F0590F491E02D0994AF
S11322C0C2E1D2E06AC1C4ECD9E067C1CAEADBE288
S11322D064C1C0E4D0E061C1C9E0D0E05EC18091D6
S11322E0CA0902C00E948406C82FD0E056C187E004
S11322F00E94B910C0E0D0E0882309F04EC1C1E0CB
S1132300D0E04BC10E94AA1029C00E946D1420C0C5
S1132310C0E9D1E042C12091E2023091E30240E001
S113232050E060917B0B70917C0B80E090E00E9408
S11323304B365FE096958795779567955A95D1F7D3
S1132340645F714080409040EB0127C10E943D14BE
S113235063E070E00E948A369B01C901EC011DC153
S1132360C8E8DAEF1AC10E940011F8CF862F0E9444
S11323703411E82FF0E0EE0FFF1FE453F64FC08155
S1132380D1810BC180E003C081E001C082E00E94E2
S1132390CE2F25C083E0FBCF84E0F9CF85E0F7CFD3
S11323A086E0F5CF87E0F3CF88E0F1CF89E0EFCF87
S11323B08AE0EDCF8BE0EBCF8CE0E9CF8DE0E7CF87
S11323C0C8E7D6E5EAC0862F0E943411E82FF0E072
S11323D0EE0FFF1FEC53F64FD2CF0E94A7069C01CD
S11323E0BCCFC1E3D1E0D9C00E94561465C00E949D
S11323F04C1462C0C0916F0BD091700BCEC0C091D1
S1132400730BD091740BC9C0C0916D0BD0916E0B3E
S1132410C4C0C0916B0BD0916C0BBFC0C091690B51
S1132420D0916A0BBAC0C091670BD091680BB5C04C
S1132430C091650BD091660BB0C0C091630BD09175
S1132440640BABC0C091610BD091620BA6C0C0916C
S11324505F0BD091600BA1C0C0915D0BD0915E0B5E
S11324609CC0C0915B0BD0915C0B97C0C091590B81
S1132470D0915A0B92C0C091570BD091580B8DC07C
S1132480C2E5D3E08AC0CCE0DEEF87C0C8E2D0E08A
S113249084C0C4E6D0E081C0C0E2D3E07EC0CFE413
S11324A0D0E07BC0C0E4D2E978C0C0E8DEE875C003
S11324B08091710B9091720B63E070E00E9476360C
S11324C04BCFC8E1D9E769C0C0E6DDE666C0C8E421
S11324D0D1E763C0C4EFD1E060C0CCE3D6EF5DC008
S11324E0C0E7D7E15AC0C8E1DCEF57C0CFE7D1E875
S11324F054C0CDEFDEEF51C0CDEFDCEF4EC0CEEFD8
S1132500D0E04BC0C0E0DCE748C0CFEFD0E045C02E
S1132510C0E0DEEF42C0C2E0D0E03FC0C0E0DFE395
S11325203CC0C4EED5E039C0CBEED0E336C0C3EA3C
S1132530D0E033C0CFE9D0E030C0C6EAD0E02DC04F
S1132540C1EBD0E02AC0CCE7D0E027C084E00E94F1
S11325506F3303C0C0ECDAE820C0C0E0D0E01DC097
S1132560C0EEDCEF1AC0C0E4DCE917C0CCEED3E166
S113257014C0C4E9D1E111C0C8E1D1E00EC0CCE17E
S1132580D0E00BC0C8E3D0E008C0CFEFDFEF05C058
S1132590C7EAD0E002C0C2EED7E50E944424CE01CF
S11325A0DF91CF910895CF93DF93EA0110923A011E
S11325B0873271F1883268F48131A9F0823120F4D4
S11325C08B3009F03FC01CC0823189F08532D1F5CF
S11325D01AC0813309F1823318F48A3299F526C07E
S11325E08E3F80F132C0842F0E9481062EC0411597
S11325F0510511F082E001C081E08093B90925C042
S11326004093CA0922C05093BF094093BE091DC01C
S1132610CA010E942E1419C0862F0E943411E82F7B
S1132620F0E0EE0FFF1FE453F64F09C0862F0E941F
S11326303411E82FF0E0EE0FFF1FEC53F64FD18377
S1132640C08303C083E00E946F330E944424DF915F
S1132650CF9108950F931F938091DC0291E0892715
S11326608093DC02882319F00E94BC144BC00091B3
S1132670DD021091DE0280E10E946D0D992787FD35
S11326809095081B190B1093DE020093DD020730AE
S1132690110534F487E090E09093DE028093DD022C
S11326A02091DD023091DE028091DF029091E00200
S11326B0280F391F3093E0022093DF028091E1025A
S11326C08F5F8093E102803470F01092E1023093C6
S11326D0E3022093E2021092E0021092DF021092D1
S11326E0DE021092DD0280E16DED72E00E94DC0DED
S11326F080E16DED72E00E94DC0D80E16DED72E031
S11327000E94DC0D1F910F910895909581959F4F24
S11327109093F3028093F2029C01442737FD409585
S1132720542F8091F7029091F802A091F902B09190
S1132730FA02280F391F4A1F5B1F2093F7023093B8
S1132740F8024093F9025093FA02263F8FE43807C7
S113275082E0480780E0580784F1265F3F44424006
S113276050402093F7023093F8024093F9025093BB
S1132770FA028091F0029091F10201969093F10295
S11327808093F0028091E4029091E5020196909387
S1132790E5028093E402885E93400CF444C01092F6
S11327A0E5021092E4028091EC029091ED02019610
S11327B09093ED028093EC0208952B3080EB380760
S11327C08DEF48078FEF580774F52A50304B4D4F63
S11327D05F4F2093F7023093F8024093F90250932D
S11327E0FA028091F0029091F10201979093F10224
S11327F08093F0028091E4029091E5020196909317
S1132800E5028093E402885E93406CF01092E50246
S11328101092E4028091EC029091ED020196909363
S1132820ED028093EC0208951092F1021092F002EE
S11328301092ED021092EC021092EF021092EE024E
S11328401092F7021092F8021092F9021092FA0212
S113285008951092F1021092F00208959C0153E041
S1132860880F991F5A95E1F7220F331F820F931F88
S11328709093F1028093F00208958091F002909178
S1132880F1026AE070E00E948A36CB0108959093C9
S1132890EF028093EE0208958091EE029091EF0290
S11328A008959093ED028093EC0208958091EC02D8
S11328B09091ED0208956091F7027091F802809171
S11328C0F9029091FA0208956093F7027093F80266
S11328D08093F9029093FA020895EF92FF920F9376
S11328E01F9310923A01E090F202F090F302002755
S11328F0F7FC0095102F0E94442466E0EE0CFF1CA8
S1132900001F111F6A95D1F7C801B7012BE132E00E
S113291040E050E00E94BF36C9011F910F91FF9023
S1132920EF9008958091F4029091F50297FF03C00F
S1132930909581959F4F2BE0893B920714F08BE192
S113294006C08437910514F08DE001C08FE08093B8
S1132950F6028091F60264EF72E00E94DC0D809131
S1132960F60264EF72E00E94DC0D8091F60264EFDF
S113297072E00E94DC0D08950F931F930091F402FE
S11329801091F5028091F6020E946D0D992787FD42
S113299090959801281B390BC9013093F5022093B7
S11329A0F4022091F6022F30B9F02B3119F02D30BA
S11329B001F50AC0A6E0880F991FAA95E1F7909344
S11329C0F5028093F40215C0F5E0880F991FFA957B
S11329D0E1F765E070E007C0E3E0880F991FEA952E
S11329E0E1F769E170E00E948A367093F502609322
S11329F0F4028091F4029091F5029C01442737FD82
S1132A004095542F8091E8029091E902A091EA0246
S1132A10B091EB02280F391F4A1F5B1F2093E80275
S1132A203093E9024093EA025093EB02809105014E
S1132A308F5F809305018931A4F01092050175E040
S1132A4055954795379527957A95D1F7C9010E94F1
S1132A5085131092E8021092E9021092EA02109291
S1132A60EB020E9492141F910F91089540E050E0F0
S1132A70FA01EC52F64F8081863B31F44F5F5F4F91
S1132A8081E040385807A1F720E831E0241B350BDA
S1132A90C901089584ED99E066EB70E040E851E0E7
S1132AA00E94EC3683E59BE060E97FE10E94AC2361
S1132AB09093FE028093FD020895FF920F931F935B
S1132AC0DF93CF9300D000D0CDB7DEB79C0164E68E
S1132AD070E00E947636F82EC90164E670E00E9428
S1132AE07636CB018E010F5F1F4FB8014AE050E0EC
S1132AF00E941837BC018FEF92E00E94F3368FEFEB
S1132B0092E06AEB73E00E94DA3689E08F1530F0C8
S1132B108FEF92E068EB73E00E94DA368F2D90E03D
S1132B20B8014AE050E00E941837BC018FEF92E0F0
S1132B300E94F3360F900F900F900F90CF91DF917A
S1132B401F910F91FF900895CF93DF93EC0197FFAE
S1132B5008C0D095C195DF4F8FEF92E066EB73E02C
S1132B6004C08FEF92E064EB73E00E94DA36CE018A
S1132B700E945D15DF91CF910895DF93CF9300D02C
S1132B8000D000D0CDB7DEB7BE016F5F7F4F4AE003
S1132B9050E00E941837BC018FEF92E00E94F33698
S1132BA026960FB6F894DEBF0FBECDBFCF91DF914E
S1132BB00895CF93DF93EC0197FF08C0D095C1959A
S1132BC0DF4F8FEF92E064EC74E004C08FEF92E08B
S1132BD062EC74E00E94DA36CE010E94BD15DF91EA
S1132BE0CF910895AFEFB2E0FD0101900020E9F725
S1132BF03197EA1BFB0BCD016E2F0E94082B0E941C
S1132C00C42A08958FEF92E060E07AE00E94E536EE
S1132C1080E00E94B910882341F00E94F2158FEFE2
S1132C2092E063EE79E00E94E53681E00E94B910FB
S1132C30882341F00E94F2158FEF92E06CEC79E06A
S1132C400E94E53682E00E94B910882341F00E9478
S1132C50F2158FEF92E065EB79E00E94E53683E0B0
S1132C600E94B910882341F00E94F2158FEF92E080
S1132C7060EA79E00E94E53684E00E94B910882376
S1132C8041F00E94F2158FEF92E06BE879E00E9428
S1132C90E53685E00E94B910882341F00E94F215C0
S1132CA08FEF92E064E779E00E94E53686E00E94C7
S1132CB0B910882341F00E94F2158FEF92E06CE581
S1132CC079E00E94E53687E00E94B910882341F03C
S1132CD00E94F2158FEF92E064E479E00E94E536F9
S1132CE088E00E94B910882341F00E94F2158FEF0A
S1132CF092E064E379E00E94E53689E00E94B9102D
S1132D00882341F00E94F2158FEF92E060E279E0AF
S1132D100E94E5368AE00E94B910882341F00E949F
S1132D20F2158FEF92E067E079E00E94E5368BE0E0
S1132D300E94B910882341F00E94F2158FEF92E0AF
S1132D406DEE78E00E94E5368CE00E94B91088238D
S1132D5041F00E94F2158FEF92E064ED78E00E945A
S1132D60E5368DE00E94B910882341F00E94F215E7
S1132D708FEF92E06AEB78E00E94E5368EE00E94E5
S1132D80B910882341F00E94F2158FEF92E06EE9AA
S1132D9078E00E94E5368FE00E94B910882341F064
S1132DA00E94F2158FEF92E069E778E00E94E53621
S1132DB008950F931F930FEF12E0C8016EEE7AE0AF
S1132DC00E94E5360E94F215C80162EE7AE00E9484
S1132DD0E5360E94F215C80160ED7AE00E94E536FE
S1132DE00E94F215C8016DEB7AE00E94E5360E945C
S1132DF0F215C8016AEA7AE00E94E5360E94F215EB
S1132E00C8016DE97AE00E94E5360E94F215C80116
S1132E106DE87AE00E94E5360E94F215C8016CE67E
S1132E207AE00E94E5360E94F215C8016EE57AE068
S1132E300E94E5360E94F215C80163E57AE00E941B
S1132E40E5360E94F215C80163E47AE00E94E53693
S1132E500E94F215C80163E37AE00E94E5360E94FD
S1132E60F215C80166E27AE00E94E5360E94F21586
S1132E70C8016CE17AE00E94E5360E94F215C801AF
S1132E8062E17AE00E94E5361F910F910895CF9296
S1132E90DF92EF92FF920F931F93E090920CF090C9
S1132EA0930C0091940C1091950CC0908903D090D0
S1132EB08A032DE730E040E050E00E944B3622E3E5
S1132EC030E040E050E00E949D362E0D3F1D401F33
S1132ED0511FF6012283338344835583C801B7010C
S1132EE00E947A231F910F91FF90EF90DF90CF9073
S1132EF00895DF92EF92FF920F931F930E94141490
S1132F001092740B1092730B1092700B10926F0B43
S1132F1084EC99E09093720B8093710B8FE097E2AD
S1132F209093780B8093770B1092760B1092750B1D
S1132F3088E1E7E5FBE0DF011D928A95E9F70FEFF1
S1132F4012E0C80163E476E00E94E5360E94F215BF
S1132F5082E08093B90964EF71E080E090E00E9420
S1132F60471700D000D000D0EDB7FEB73196ADB70B
S1132F70BEB712961C930E93119787E296E0938343
S1132F80828380917B0B90917C0B958384830E9438
S1132F905D378DB79EB706960FB6F8949EBF0FBEE9
S1132FA08DBF0E94F215EE24FF248701DD248D2DB0
S1132FB00E94DA2B0E94F42BA0E0B0E0E80EF91E88
S1132FC00A1F1B1FD39490E6D91689F7C801B701CD
S1132FD02AE030E040E050E00E949D36DA01C90169
S1132FE00E944E1000D000D000D0EDB7FEB731964D
S1132FF08FEF92E0ADB7BEB712969C938E93119764
S11330008BE096E09383828380917B0B90917C0B81
S1133010958384830E945D3781E08093B9098DB7DD
S11330209EB706960FB6F8949EBF0FBE8DBF1F9134
S11330300F91FF90EF90DF9008958F929F92AF923F
S1133040BF92CF92DF92EF92FF920F931F93DF9381
S1133050CF93CDB7DEB729970FB6F894DEBF0FBE76
S1133060CDBF8C0166E071E00E94FE36009799F0B6
S11330700E94640A00D000D000D0EDB7FEB73196AC
S11330802FEF32E0ADB7BEB712963C932E93119753
S113309022E638E019C0C8016EE071E00E94FE36F5
S11330A00097F9F00E94170C00D000D000D0EDB7C3
S11330B0FEB731962FEF32E0ADB7BEB712963C9310
S11330C02E9311972DE438E033832283992787FDCB
S11330D09095958384830E945D378DB79EB706963D
S11330E08EC0C80164E171E00E94FE36009709F4C5
S11330F08CC00E94170C198200E022E0822E912CD1
S11331008C0E9D1E5E010894A11CB11C9FEFC92E5C
S113311092E0D92E85E1E82E88E0F82E0E949635BB
S113312080E0B501A4010E94480C182FADB7BEB7CA
S113313054970FB6F894BEBF0FBEADBFEDB7FEB740
S113314031961296DC92CE921197F382E2828A81B2
S1133150848315828B81868317828C818087118674
S11331608D81828713868E81848715868F818687D9
S113317017868885808B118A8985828B138A0E94A1
S11331805D378DB79EB744960FB6F8949EBF0FBEB9
S11331908DBF0E94F2150E949835112309F40F5F28
S11331A08981882339F460E075E080E090E00E9432
S11331B04717B4CF023018F02BE131E002C02DE103
S11331C031E0ADB7BEB718970FB6F894BEBF0FBEC7
S11331D0ADBFEDB7FEB731968FEF92E012969C9398
S11331E08E93119780EF97E09383828304831582F3
S11331F0378326830E945D378DB79EB708960FB636
S1133200F8949EBF0FBE8DBF06C08FEF92E061ECB5
S113321077E00E94E53629960FB6F894DEBF0FBE1C
S1133220CDBFCF91DF911F910F91FF90EF90DF9071
S1133230CF90BF90AF909F908F9008952F923F9220
S11332404F925F926F927F928F929F92AF92BF92B2
S1133250CF92DF92EF92FF920F931F93DF93CF935E
S1133260CDB7DEB769970FB6F894DEBF0FBECDBFFA
S11332708D8BCE01459661E00E94082B9D89983084
S113328039F48091FB02882309F431C681502DC69C
S11332909A3009F42CC69D3009F01AC68EE191E0EB
S11332A063E00E94082BE091FB02F0E0E150FD4F47
S11332B010828091FF028B3609F44FC28C3640F5A0
S11332C0823609F467C0833680F48F3309F4E8C585
S11332D0803420F4813109F0E6C545C0823409F414
S11332E0DCC5813609F0DFC543C0853609F4BEC1AB
S11332F0863638F4833609F45BC0843609F0D3C5C6
S1133300A9C1863609F4DFC1893609F0CCC514C2D7
S1133310823709F49EC3833798F48F3609F46DC25B
S1133320803738F48C3609F41BC28D3609F0BBC5DE
S11333302FC2803709F4BAC2813709F0B4C50EC36D
S1133340853709F48DC5863738F4833709F484C387
S1133350843709F0A8C557C4873709F492C588375C
S113336009F0A1C593C58FEF92E060EB72E09FC5B1
S11333708F818F778F8389858F7389878E01095F0A
S11333801F4F8FEF92E0B8010E949C33C8010E9446
S1133390313566C10E94D72028E088E190E00FB65D
S11333A0F894A895809360000FBE2093600081C5B7
S11333B000D000D00FEF12E0ADB7BEB712961C9349
S11333C00E9311978BE493E014969C938E9313972A
S11333D00E945D370F900F900F900F900E94F2158E
S11333E04424552432011E8A1F8A188E198E88247B
S11333F09924302E212E882D0E94DA2B8C01882DC1
S1133400805D0E94DA2B7C01C8010E94F42B5C01D0
S1133410C7010E94F42B7C01EDB7FEB73A970FB6B3
S1133420F894FEBF0FBEEDBF3196ADB7BEB711968F
S11334303C92119712962C9225E333E03383228336
S113344095828482B782A682918780870E945D37A5
S11334508DB79EB70A960FB6F8949EBF0FBE8DBF68
S11334600E94F215CC24DD244A0C5B1C6C1C7D1CD0
S113347000E010E08E899F89A88DB98D8E0D9F1D67
S1133480A01FB11F8E8B9F8BA88FB98F0894811CAE
S1133490911C90E38916910409F0ADCF00D000D0BF
S11334A0ADB7BEB711963C92119712962C92129713
S11334B089E193E014969C938E9313970E945D3751
S11334C00F900F900F900F900E94F215EDB7FEB77A
S11334D038970FB6F894FEBF0FBEEDBF0DB71EB7F9
S11334E00F5F1F4F3182228286E093E0D80113964A
S11334F09C938E931297C301B20128EE33E040E00F
S113350050E00E949D36F80135832483C301B20143
S113351028EE33E040E050E00E949D36DC01CB0110
S11335206AE070E00E947636D80117967C936E9319
S113353016970E945D37EDB7FEB738960FB6F8942C
S1133540FEBF0FBEEDBF0E94F2152DB73EB7285047
S113355030400FB6F8943EBF0FBE2DBF0DB71EB757
S11335600F5F1F4FADB7BEB711963C9211971296DD
S11335702C9288EF92E0F801938382836E897F898D
S1133580888D998D28EE33E040E050E00E949D360E
S1133590D80115963C932E9314976E897F89888D54
S11335A0998D28EE33E040E050E00E949D36DC0126
S11335B0CB016AE070E00E947636F8017783668377
S11335C00E945D372DB73EB7285F3F4F0FB6F89482
S11335D03EBF0FBE2DBF0E94F215CE010596BE015F
S11335E06D5F7F4FAE014F5F5F4F0E941C2E89813C
S11335F09A810E94F42B7C018B819C810E94F42B84
S11336008C018D819E810E94F42BADB7BEB71A97B1
S11336100FB6F894BEBF0FBEADBFEDB7FEB731967F
S113362011963C92119712962C9225EC32E033833A
S11336302283F582E48217830683918780870E9420
S11336405D37EDB7FEB73A960FB6F894FEBF0FBEDE
S1133650EDBFFAC18E01025F1F4FC8010E942035E1
S1133660C8016FEF72E00E94733423C48FEF92E0BD
S113367061E271E00E94FE36009739F00E94FA1F61
S11336808FEF92E06EE773E012C48FEF92E066E290
S113369071E00E94FE36009739F00E94D7208FEF28
S11336A092E067E673E003C48FEF92E06BE271E0AF
S11336B00E94FE36009709F4FCC30E943D14019653
S11336C00E942E14F6C383E00E94B10E6EEE72E0E7
S11336D080E090E00E94471700E024C0812F61E061
S11336E00E94702D1F5F1036C9F70E94E42C64EF0E
S11336F071E080E090E00E9447170E949A3510E044
S1133700812F60E00E94702D1F5F1036C9F70E9460
S1133710E42C64EF71E080E090E00E9447170F5FB3
S11337200C3011F010E0DACF81E00E94B10E8FEF7F
S113373092E066E973E0BBC30E946D148C018FEFC5
S113374092E061EA73E00E94E536C8010E94A41584
S11337508FEF92E06FE973E04DC00E945432A9C329
S11337608091FC0291E089278093FC02882341F038
S113377082E00E94B10E8FEF92E06EEC73E097C38B
S113378081E00E94B10E8FEF92E06CEB73E08FC387
S113379000E010E0F801EC52F64F8081863B31F4F2
S11337A00F5F1F4FF1E000381F07A1F78FEF92E082
S11337B065E174E00E94E53680E891E0801B910B9E
S11337C00E94BD158FEF92E06CE074E00E94DA363F
S11337D00E94F2150E949D0E8C018FEF92E068EE1C
S11337E073E00E94E536C8010E94BD158FEF92E098
S11337F06FED73E00E94DA365CC380E10E946D0DC8
S1133800182F8FEF92E064EA74E00E94E536812F6E
S1133810992787FD90950E94D9158FEF92E061EA70
S113382074E00E94DA360E94F2158BE10E946D0D5D
S1133830182F8FEF92E061E874E00E94E536812F43
S1133840992787FD90950E94D9158FEF92E06EE736
S113385074E00E94DA360E94F2158DE00E946D0D2C
S1133860182F8FEF92E06DE574E00E94E536812F0A
S1133870992787FD90950E94D9158FEF92E06AE50C
S113388074E00E94DA360E94F2158FE00E946D0DFA
S1133890182F8FEF92E068E374E00E94E536812FE1
S11338A0992787FD90950E94D91503C38FEF92E065
S11338B060E371E00E94FE36009739F01092B90976
S11338C08FEF92E06DE575E0F2C28FEF92E064E372
S11338D071E00E94FE36009741F082E08093B909BE
S11338E08FEF92E06EE375E0E2C28FEF92E066E262
S11338F071E00E94FE36009741F081E08093B9099F
S11339008FEF92E06FE175E0D2C28FEF92E06CE04E
S113391075E00E94E5368091B909813051F081301B
S113392018F0823081F40AC08FEF92E066E075E00F
S11339300EC08FEF92E06FEF74E009C08FEF92E05A
S113394068EF74E004C08FEF92E06EEE74E00E94C2
S1133950DA368FEF92E066EC74E04CCF0E943D14AF
S11339608C018FEF92E068EF75E00E94E536C801A4
S11339700E94A4158FEF92E063EF75E00E94DA369F
S11339800E94F2158FEF92E060EE75E00E94E5363A
S11339908091750B9091760B0E94A4158FEF92E0A5
S11339A06BED75E00E94DA360E94F2158FEF92E01B
S11339B068EC75E00E94E5368091710B9091720B72
S11339C00E94A4158FEF92E063EC75E00E94DA3652
S11339D00E94F2158FEF92E060EB75E00E94E536ED
S11339E08091770B9091780B0E94A4158FEF92E051
S11339F06BEA75E00E94DA360E94F2150E945614B2
S1133A008C018FEF92E068E975E00E94E536C80109
S1133A100E94D9158FEF92E063E975E00E94DA36CF
S1133A200E94F2150E944C148C018FEF92E060E822
S1133A3075E00E94E536C8010E94D9158FEF92E027
S1133A406BE775E00E94DA360E94F2151092FF02CD
S1133A5030C20E9479172DC20FEF12E0C8016DE049
S1133A6077E00E94E5368091570B9091580B0E94A5
S1133A70BD150E94F215C80165E077E00E94E536A5
S1133A808091590B90915A0B0E94BD150E94F2151A
S1133A90C8016DEF76E00E94E53680915B0B909152
S1133AA05C0B0E94BD150E94F215C80165EF76E01B
S1133AB00E94E53680915D0B90915E0B0E94BD15CE
S1133AC00E94F215C8016DEE76E00E94E536809101
S1133AD05F0B9091600B0E94BD150E94F215C80106
S1133AE065EE76E00E94E5368091610B9091620B61
S1133AF00E94BD150E94F215C8016DED76E00E948A
S1133B00E5368091630B9091640B0E94BD150E9471
S1133B10F215C80165ED76E00E94E5368091650BEB
S1133B209091660B0E94BD150E94F215C8016DECC0
S1133B3076E00E94E5368091670B9091680B0E94B5
S1133B40BD150E94F215C80165EC76E00E94E536C9
S1133B508091690B90916A0B0E94BD150E94F21529
S1133B60C8016CEB76E00E94E53680916B0B909176
S1133B706C0B0E94BD150E94F215C80163EB76E040
S1133B800E94E53680916D0B90916E0B0E94BD15DD
S1133B900E94F215C8016EE976E00E94E536809134
S1133BA06F0B9091700B0E94BD150E94F215C80115
S1133BB064E876E00E94E5368091730B9091740B73
S1133BC00E94BD150E94F21500D000D000D0EDB7C0
S1133BD0FEB73196ADB7BEB712961C930E931197EC
S1133BE088E696E0938382838091560B84831582C2
S1133BF00E945D37EDB7FEB736960FB6F894FEBF58
S1133C000FBEEDBF56C100D000D00FEF12E0ADB72C
S1133C10BEB712961C930E9311978EE897E01496F4
S1133C209C938E9313970E945D370F900F900F9083
S1133C300F900E94F21588249924EE24FF24A12ECB
S1133C4032E7432E37E0532E8E2D0E94CE2F3C01B7
S1133C50B3E0EB16F1042CF48E2D8C5F0E94CE2F72
S1133C604C01EDB7FEB73E970FB6F894FEBF0FBEFA
S1133C70EDBF3196ADB7BEB711960C93119712965E
S1133C80AC9253824282F582E482C30164E670E01E
S1133C900E948A3677836683C30164E670E00E94DB
S1133CA08A3691878087C40164E670E00E948A3670
S1133CB073876287C40164E670E00E948A36958740
S1133CC084870E945D37EDB7FEB73E960FB6F89431
S1133CD0FEBF0FBEEDBF0E94F2150894E11CF11C5B
S1133CE0F0E1EF16F10409F0AFCF00D000D0ADB78A
S1133CF0BEB711960C9311971296AC92129784E565
S1133D0097E014969C938E9313970E945D370F90BF
S1133D100F900F900F900E94F215CE010196BE01F4
S1133D206D5F7F4FAE014B5F5F4F0E94642F2D810B
S1133D303E81EDB7FEB738970FB6F894FEBF0FBEBD
S1133D40EDBF3196ADB7BEB711960C93119712968D
S1133D50AC9280E497E093838283C90164E670E0C7
S1133D600E948A3675836483C90164E670E00E9408
S1133D708A36978386830E945D37EDB7FEB73896FF
S1133D800FB6F894FEBF0FBEEDBF0E94F2152B8153
S1133D903C818DB79EB708970FB6F8949EBF0FBEAF
S1133DA08DBFEDB7FEB73196ADB7BEB711960C9384
S1133DB011971296AC928CE297E093838283C901A7
S1133DC064E670E00E948A3675836483C90164E600
S1133DD070E00E948A36978386830E945D37EDB730
S1133DE0FEB738960FB6F894FEBF0FBEEDBF0E9423
S1133DF0F21529813A818DB79EB708970FB6F894CA
S1133E009EBF0FBE8DBFEDB7FEB73196ADB7BEB73F
S1133E1011960C9311971296AC9288E197E09383D4
S1133E208283C90164E670E00E948A3675836483E4
S1133E30C90164E670E00E948A36978386830E94F3
S1133E405D37EDB7FEB738960FB6F894FEBF0FBED8
S1133E50EDBF0E94F215802F9A2D65E177E027C00F
S1133E600E9431108C018FEF92E06EEA77E00E949D
S1133E70E536C8010E945D158FEF92E06CEA77E0A9
S1133E80B9CC8FEF92E00E941D1813C081E080939B
S1133E90390180E00E9479060CC00E94021609C014
S1133EA00E94D91606C08FEF92E06EE872E00E947D
S1133EB0E5360E94F2158FEF92E06AE772E00E9405
S1133EC0E5360E94F2151092FB021092FF020FC019
S1133ED0992319F40E94A3350AC08091FB02E82FAC
S1133EE0F0E0E150FD4F90838F5F8093FB02699671
S1133EF00FB6F894DEBF0FBECDBFCF91DF911F91F7
S1133F000F91FF90EF90DF90CF90BF90AF909F9074
S1133F108F907F906F905F904F903F902F90089577
S1133F20EF92FF920F931F93DF93CF930F92CDB72E
S1133F30DEB764E670E080E090E00E94471710E08E
S1133F407E010894E11CF11C01E18091CE0C8823D0
S1133F5071F18EEC9CE0B70141E00E945922898105
S1133F60103169F4843639F41092390181E00E94E9
S1133F707906098305C0803111F410E001C0182FBF
S1133F8080913901813019F40E94750609C0898134
S1133F90803151F481E08093390180E00E947906F8
S1133FA089810E945A24D1CF0E941E19CECF68E085
S1133FB070E080E090E00E944717C7CFFC0150E01A
S1133FC090E078E113C0308120E0832F8927482FC7
S1133FD0417080FD97279695413009F490682F5FD2
S1133FE0283011F03695F1CF5F5F3196561759F7A7
S1133FF0892F0895F999FECF80E090E00E941B3C40
S11340000E942E14F999FECF82E090E00E941B3C9E
S11340100E944714F999FECF84E090E00E941B3C73
S11340200E945114F999FECF86E090E00E94153C5D
S11340300E946414F999FECF8AE090E00E941B3C30
S113404090936E0B80936D0BF999FECF8CE090E00A
S11340500E941B3C90936C0B80936B0BF999FECFE1
S11340608EE090E00E941B3C90936A0B8093690B56
S1134070F999FECF80E190E00E941B3C9093680B7D
S11340808093670BF999FECF82E190E00E941B3C7C
S11340909093660B8093650BF999FECF84E190E0D1
S11340A00E941B3C9093640B8093630BF999FECFA1
S11340B086E190E00E941B3C9093620B8093610B1D
S11340C0F999FECF88E190E00E941B3C9093600B2D
S11340D080935F0BF999FECF8AE190E00E941B3C2C
S11340E090935E0B80935D0BF999FECF8CE190E089
S11340F00E941B3C90935C0B80935B0BF999FECF61
S11341008EE190E00E941B3C90935A0B8093590BD4
S1134110F999FECF80E290E00E941B3C9093580BEB
S11341208093570BF999FECF82E290E00E941B3CEA
S11341309093700B80936F0BF999FECF84E290E01B
S11341400E941B3C9093740B8093730BF999FECFE0
S113415086E290E00E941B3C9093720B8093710B5B
S1134160F999FECF88E290E00E941B3C9093760B75
S11341708093750BF999FECF8AE290E00E941B3C74
S11341809093780B8093770BF999FECF8CE290E0B3
S11341900E941B3C90937C0B80937B0BF999FECF80
S11341A08EE290E00E940D3C8093560B0895F9999D
S11341B0FECF0E943D14BC0180E090E00E94373C99
S11341C0F999FECF0E944C14BC0182E090E00E9459
S11341D0373CF999FECF0E945614BC0184E090E06C
S11341E00E94373CF999FECF0E945B14AB01BC01DD
S11341F086E090E00E942F3CF999FECF60916D0B10
S113420070916E0B8AE090E00E94373CF999FECFE2
S113421060916B0B70916C0B8CE090E00E94373CCA
S1134220F999FECF6091690B70916A0B8EE090E072
S11342300E94373CF999FECF6091670B7091680B2F
S113424080E190E00E94373CF999FECF6091650BC4
S11342507091660B82E190E00E94373CF999FECFA1
S11342606091630B7091640B84E190E00E94373C91
S1134270F999FECF6091610B7091620B86E190E039
S11342800E94373CF999FECF60915F0B7091600BEF
S113429088E190E00E94373CF999FECF60915D0B74
S11342A070915E0B8AE190E00E94373CF999FECF51
S11342B060915B0B70915C0B8CE190E00E94373C49
S11342C0F999FECF6091590B70915A0B8EE190E0F1
S11342D00E94373CF999FECF6091570B7091580BAF
S11342E080E290E00E94373CF999FECF60916F0B19
S11342F07091700B82E290E00E94373CF999FECFF6
S11343006091730B7091740B84E290E00E94373CCF
S1134310F999FECF6091710B7091720B86E290E077
S11343200E94373CF999FECF6091750B7091760B22
S113433088E290E00E94373CF999FECF6091770BB8
S11343407091780B8AE290E00E94373CF999FECF95
S113435060917B0B70917C0B8CE290E00E94373C67
S1134360F999FECF8EE290E06091560B0E94213CB9
S1134370F999FECF0895AF92BF92CF92DF92EF9258
S1134380FF920F931F93BC01A090920CB090930CDA
S1134390C090940CD090950C8091920C8A1541F0A9
S11343A0A090920CB090930CC090940CD090950C6B
S11343B080E090E02DE730E040E050E00E944B3692
S11343C022E330E040E050E00E949D3679018A010A
S11343D02091920C3091930C4091940C5091950C37
S11343E08091920C821741F02091920C3091930CA1
S11343F04091940C5091950C2A193B094C095D0984
S11344002E153F054007510718F31F910F91FF9098
S1134410EF90DF90CF90BF90AF900895FC01108291
S113442075836483738362834183478346830895DA
S11344300F931F93CF93DF93DC01042F14964D91B8
S11344405C91159717962C911797302F201708F425
S1134450322F10E019C0819189938E2F861B831708
S1134460D0F3832F90E0480F591F680F791F231B47
S113447029F411962C911197421B51091F5F123098
S113448031F0802F831B382FFB01EA01E6CF17960A
S11344902C93179715965C934E9314979FB7F894A3
S11344A08C91800F8C939FBFDF91CF911F910F91BF
S11344B008950F931F93CF93DF93DC018801841138
S11344C000140824000600902C9110911296149068
S11344D014911407440700140024002010C009801C
S11344E081918803860B8013801380238020000031
S11344F0080F080F280F111B001001941090109141
S1134500011321090109021030300020800B000B37
S11345106801E901E001028610922C93029312963D
S113452014921493169798948890841184138C93FE
S1134530842F8401CF910F910F91089108900F92CD
S11345400F920F92010001008F938F93EF9380914C
S11345508000880000300130003000300030083026
S113456000310030083001C001C0000080318031CA
S1134570083401C00000003008C004C0008080017D
S113458080018001800300201070004001409000F1
S11345909000810001C0008080018003002001E0C0
S11345A005C020808001800180018001809180000D
S11345B0B0008003800380038001800181008010AB
S11345C080038503808180018000803080C48081E5
S11345D08000A0008001800180018103809380031A
S11345E080038003800180018000801080038803A1
S11345F0802281E001C000808000A0008001800151
S1134600800180038081808180008000808000039D
S11346100700008080038000808000030003800086
S1134620BC00EF918F918F910F900F900F900F908E
S1134630189018018801200060E004E280E0008006
S11346400C1400102040004040405000469507954F
S11346502795209120001000100010001000080081
S11346600891009210021803908380038003800352
S1134670000300030003000300030003000300031E
S113468000030003000300038002808280000C000A
S11346900891009100030002100218039083800324
S11346A080038003800081E0908080038003800386
S11346B081008080800300030003000300030003E3
S11346C000038002808280000800009190000000B6
S11346D000808000800888130834009000010803DB
S11346E088231092100080008001000100901000C7
S11346F0800000800801A8019C019894809000012A
S1134700100010001A018130013000E002C0208046
S113471020012801E9E01BC00080808181018920FB
S1134720808082818081A481840184078407A60714
S1134730200400908001800180018803E80749007B
S1134740408006010E000E000400044027162310CA
S1134750003000E080800001080108011000100012
S1134760200120012801A9E020C000808C91109133
S11347700103892080908001800180018803092041
S11347802090800380038003010000806083008008
S113479084E080828293109311961092EC9380802F
S11347A0808000010800094007160310203080E0D3
S11347B0808000012000A0E0800008010891CF93D0
S11347C050930003000300038901E8012C002F9299
S11347D00F924F924F926F920F928F928F92AF924D
S11347E08F92CF92CF92EF920F920F930E900A0472
S11347F00C000F910F90EF90CF90CF908F90AF90CF
S11348008F908F900F906F904F904F900F902F90AC
S11348100F90CF910891089408940193009300831A
S11348200081099108810881089408940890EF9206
S11348300F920F9300910000100010000000000080
S1134840100010008000800180018001820182003C
S1134850E00A880886200030208022830083448375
S113486001800B40090108018800E00801080109E2
S11348700000E282008204830001880108000A002B
S11348801B010F910F90EF90089008952894909039
S113489010010000808000012A0102301030409095
S11348A000001000100080008000900090000404BC
S11348B00A0008010890CF92CF92EF920F920F93C3
S11348C01F93CF93CD93CCB74C970D960894D8945F
S11348D00EBE0DBE882F80018001820000300130A1
S11348E00030002000200130013000C002C002006E
S11348F081308030003000C040C01000003008C05B
S113490030C010001030103000300030003000C0D3
S113491000C0000010301930093008C00081800345
S113492080008080800308010000003001301030D6
S1134930103090309030003009C005C000001030B5
S11349401830083001C0108180038003900399005F
S11349509010900310020002800080800001030088
S113496080C080C080C08081000108010820003020
S113497000300090100010001000803081E0808032
S11349800001000180018803E020E040EC46900330
S113499080038013800380018001890380038003E6
S11349A090018001800180019003081400C081C03F
S11349B080800001000084C080810001080108207B
S11349C0003010301090100013009000003000C030
S11349D0808180018903091009C00080000100035F
S11349E0000300010001800180010E0301348030C6
S11349F0003000C040801001000000808001900061
S1134A000020482B002B022F0E84021093008200FA
S1134A1000300030003008C02EC0020002040C1028
S1134A200001208120810001080320822082088265
S1134A30108000010D0309034127452542954A8151
S1134A400E830303202720272807208020E0280046
S1134A500E014F4F17400400E40F800180018030A5
S1134A608024862FE627E725E09530952007E40F7C
S1134A700400008080818100111021170013445329
S1134A802F5F2F5F220FE227E725E0958005802026
S1134A908000E807000300C008800A048000800149
S1134AA0000100010C000C104C0104000080000106
S1134AB00C000C104C010000008000010C000C10D4
S1134AC00C010C000A108800800180818081800123
S1134AD08D038884888482078127812582958A852D
S1134AE00883000B8127812582958881088B0A0918
S1134AF08925812582958A81888A8C088925812542
S1134B00829588818C8ACE003E0010809000080037
S1134B10294E010180018007E207D10799830C80A7
S1134B2024E024000401444F17400400E40F8001F2
S1134B30800180308024862FE627E725E095309594
S1134B402007E40F040000808081810011102117E8
S1134B50001344532F5F2F5F220FE227E725E095D0
S1134B60800580208000E807000300930003800193
S1134B700A0000001002000209020D960894D8945D
S1134B800EBE0DBECD91CF911F910F910F90EF905E
S1134B90CF90CF900890008040E05000E200E446BF
S1134BA080018001003009544F4F40084000010546
S1134BB020E020E02000240B010108010890AF92BE
S1134BC08F92CF92DF920F920F931F93CF93CD9337
S1134BD0CCB7089709960894D8940EBE0DBE4C0124
S1134BE048010A000604100C8822082009C001C0EC
S1134BF004840200000000E01000E001E00F8001E6
S1134C0000800200500A8822082008C00A400F4F82
S1134C1008000000010588E30E800200500A882283
S1134C20082008C00E000E010F4F0A400220C02CBD
S1134C30C00CCC0EC80008000C00F80A882208201A
S1134C4009C00F400F4F0C050C0501058001000041
S1134C50008008800E1498058905091018E0982E24
S1134C6029000980080120200080880100200150CB
S1134C70204030002595048480E00080200120013C
S1134C80200D300D300D100401008080008028813B
S1134C902CE92C01000140014001000D100D100D04
S1134CA01004102000800A148A0000001000000183
S1134CB0854B8E0F8E0F9501910180830080040433
S1134CC00624090409960894D8940EBE0DBECD910D
S1134CD0CF911F910F910F90DF90CF908F90AF9055
S1134CE008900890CF92EF920F920F930F93CF9367
S1134CF0CC010000100000010000000000002000B2
S1134D000020800000040924CC24EE24870007003E
S1134D10040000010024009400051024D104009034
S1134D20200020002000000000202000100041008E
S1134D30880182258095A005A80EE80E081E0A1F8A
S1134D4013140294040444205120212021252325F6
S1134D5020950005432F4001800106000E148900B0
S1134D60C80158010C018900E882C880CF910F91D5
S1134D700F910F90EF90CF9008900801880080E485
S1134D8090838083008210002001200020002000F6
S1134D90000000202000380000808081800182070C
S1134DA010041080208320812000200020000000B7
S1134DB000202000380000808081800182071004D8
S1134DC01080208300800404000408018C0087E024
S1134DD091828083008210002001200020002000A6
S1134DE00000002020003800008080810001280796
S1134DF01004108020832081200020002000000067
S1134E000020200038000080808100012807100461
S1134E1010802083008004040004080110001000A6
S1134E20020080308024812580959001400042005A
S1134E30EE0F4A1540958007880F880FE80FE01E93
S1134E40E24E8005808500800020800010000990DB
S1134E508C93008000801C920C9004040004089140
S1134E6010921000100000800000000000000000FC
S1134E708040004001E000800000000000000000CD
S1134E808040004009500E140404002401010891DC
S1134E90009100001000100080008000900090003D
S1134EA080008001800180010802684A084F8F4F0A
S1134EB002036283008384830101634000408040D5
S1134EC000000A00080108910F930F93CF938C01FF
S1134ED00C0006040000882081E40484020000031E
S1134EE0802080E0C0E0D000E801EC0F8001008069
S1134EF002000003002001940010C000810580E737
S1134F0000E404840C008D01CF910F910F9108915E
S1134F10009010001801812580959001A000A20046
S1134F20EE0FAA15A0958007880F880FE80FE01EE2
S1134F30E24E80058085800080401040110088008A
S1134F400080019001108150009404040004089032
S1134F50EF921F921F93CF930F920D92CCB71092A2
S1134F601000000080E090800000000000000000BD
S1134F7000000000000008000880081480200000E1
S1134F8008000014E11CB100020140E004800804A0
S1134F90080C0804061410211121109000000000D0
S1134FA0000000008801802080E080E004800A0086
S1134FB00A00081480208000040044E004800804EF
S1134FC0080C0804061410211120109000000000A1
S1134FD0000008008801002000E080E004800A004E
S1134FE00A000404022082E002E060E040E040E0C5
S1134FF000800C14882080E000E068E008800C0049
S113500080030000000000000E000F90CF911F915C
S11350101F90EF9008900890EF920F920F930F93C8
S1135020CF93DF00EE24E204808000E0200000142F
S113503001E08020F8248E24892581258095800133
S113504000000000CC0F181500958007880F880F0A
S1135050C80F88010600024E180180018085800077
S1135060804010400001080002040404081488244D
S113507082E002800A000A00061496012E016A4D9D
S1135080480108000E04D00580068434902481254C
S113509080959001EC01EE0FEE0FEE0FE80FE80F94
S11350A0D901C900E94C814001800190011081506F
S11350B000950084008408910F93CF930F920D9272
S11350C0CCB70827002F820F0A400A800A140A303E
S11350D000300054004001C08182800382010E012F
S11350E02F4F3901010000E00080000001000F9003
S11350F0CF910F91089108910F93CF93009000D016
S113510000900D92CCB79E010E012F4F3901000083
S113511000E0048000003101300100010A800280B7
S11351208001000010040801890009300194010580
S113513003000F900F900F900F900F90CF910F914D
S1135140089108910F93CF930F920D92CCB794A727
S1135150908398010E012F4F3901010000E0008077
S1135160000001000F90CF910F9108910890CF9209
S1135170CF92EF920F920F930090800090009000D6
S113518000000000100010008000800080008000FB
S1135190080320E000E040E000800A14022220E03E
S11351A000E040E000800C140C042E0D001D401F94
S11351B050012201228300834483400180010600C0
S11351C00A001B010F910F90EF90CF90CF900890A1
S11351D000901000200460E000E080E00080060001
S11351E0140808900890448A60E000E080E00080A1
S11351F006001708488860E000E080E000800600B0
S1135200170801808080000000040090549A0188EF
S113521080E000E061E008800C00800310000000E2
S1135220000000040890AF928F92CF92CF92EF9239
S11352300F920F931F93CF93CD93CCB706970796F6
S11352400894D8940EBE0DBE45A705262400080078
S11352500014E11C40004020C02CC00CCC0E1406ED
S113526030261220008000000000082009C00080C1
S113527080018B0580138001A900898081010100D0
S11352800100000000800000000004000001800113
S113529088050030116001400040901380018804AB
S11352A080E002800A00800100000000082000C0A5
S11352B000C08101000000000600068000002101FA
S11352C020802040204100018B81800100000004E7
S11352D0280F08018081800100000004280F0801C4
S11352E080808080408640E010002401400140011D
S11352F0000D100D100D10040004280F30132001B0
S1135300200120010A0404000023003000908001E1
S113531082000240008080018D05801380010C0012
S113532000C0E0E084808400840000821082108247
S113533034806620E702B10780E680E002800A003C
S113534091011082100082008080800080008080A3
S11353508000810080828000A000E0E080808000E6
S113536080000080089408900F920F920F92010021
S11353700100EF920F920F930F932F930F934F937C
S11353804F936F930F938F938F93AF93AF93EF9349
S1135390E0908000900090000000000010001000D9
S11353A000040014E11C011C011D00108000900089
S11353B09000000000001000100010040090800015
S11353C08802002000900A100011000006049809C9
S11353D090101030209020020000800106000A0086
S11353E07B01EF91AF91AF918F918F910F916F915D
S11353F04F914F910F912F910F910F910F90EF902B
S11354000F900F900F900F90189018900F920F928A
S11354100F92010001000F938F938F93EF932091CC
S11354200000800080008000800088049814C090F0
S1135430C000D000D0000100009180008100015024
S113544000908000C808E00980018000D000D000EE
S1135450C000C00092049894809080008E0C801349
S113546080008E0C9F91EF918F918F910F910F90EF
S11354700F900F900F90189018900F920F920F9218
S1135480010001000F938F938F93EF93809180001D
S11354908100801180004000009080008000002185
S11354A00091C000C000C000010000918000800095
S11354B0015000908000C008E009F001C000C00065
S11354C0C000800080008C0488949090800080004C
S11354D090108000860C0093000080008000800003
S11354E080028000C100EF918F918F910F910F90F6
S11354F00F900F900F90189018900F920F920F9298
S11355000100010080918000800000202190009023
S11355108000800080018000400008900F900F9070
S11355200F900F9018900890CF92CF92EF920F9215
S11355300F93009080009000900000000000100085
S113554010008000800080008000080320E000E05C
S113555040E000800A14022220E000E040E00080E5
S11355600C140C042E0D001D401F50012201228337
S1135570008344834001800106000A001B010F914F
S11355800F90EF90CF90CF900890008004C060E01F
S113559000E080E00080020080008000810084CD73
S11355A0008508900F920F930F93CF931803082F41
S11355B0002E602060E000E080E0008002008000B7
S11355C080008100801280000100218060E000E002
S11355D080E000800200002A202F0001C8010000A2
S11355E000C0088080918000460060E000E080E018
S11355F000800200140A1F15001120900090800002
S1135600800080018000C100CF910F910F910F9015
S1135610089008910F930F93CF93CC0104010028B5
S11356200030102010050601400100040800000BA2
S1135630C10D0119000B908180008008800880133F
S1135640001400940400862884E09C0000010004F7
S1135650080000008000810080128000010000909A
S11356608000800080028000C100CF910F910F91D3
S1135670089108950392239801808080800085001A
S113568080818000C00088808081800080008080CC
S113569080008000800080008000800082CD80CC6B
S11356A08080800080008EAC8CE004E064E040E008
S11356B000800E00062084E004E064E040E0008006
S11356C00E00080000919021906B9439902990204D
S11356D090609C2584958695801081300895089566
S11356E00CB405B405CE088508858EAD0CB405B49C
S11356F005CE8C8508950801640021302030603087
S113570060302030213020302020402041302130B2
S113571008C0020001300030003000C0200000301A
S113572001302830203020302130213020C02000AA
S11357306830683040304030693040E040E010C0AC
S1135740008000810180018080818210020020801D
S11357500080008104800480808182100500208004
S1135760008006810780078082818210000000800B
S11357700080008502800280828582100300008000
S113578000800485058005808085821006000080E5
S113579000800081000908000080808182100100DF
S11357A0000992059015002F482B402B52055210EA
S11357B04A0008010805202000E080E00020402085
S11357C010200807480708002450245F0C16041012
S11357D0213080E10000000000000004601B031978
S11357E0814D08040A0008010801140126952005CA
S11357F0280F0901080108908F92AF928F92CF92DF
S1135800CF92EF920F920F93180308080080008440
S11358100E00200080009000900080008000900026
S1135820900090009000920400100090800090007E
S113583090008000800090009000010C602000E047
S113584080E000E020E000E040E000800A14022252
S113585020E000E040E000800C1419000801800002
S11358600080000010001000000000001000100074
S1135870000000000204401000900000100010001E
S1135880000000001000100094048010810018092A
S11358901000912019340890008002C00100802E6D
S11358A0803A00300890008000C0040002082A09F1
S11358B008094C090C012E05000540070002089256
S11358C0048004800F910F90EF90CF90CF908F9031
S11358D0AF908F9008900890CF92EF920F920F9311
S11358E00F93CF93CC012C00008000840E00600045
S11358F08000900090000000000010001000900054
S113590090009204401040908000900090000000AD
S11359100000100010009400800080E000E020E00F
S113592000E040E000800A14022220E000E040E0B1
S113593000800C148900C801400060E02080000051
S11359401000100000000000100010008000800013
S113595082044010009000001000100000000000BD
S113596010001000940490100000660F1619000037
S113597061606F2F6F0719040890008002C0000057
S1135980610511040890008000C00C000E082E0967
S11359900009400B0003280708074A075802289209
S11359A000808080CF910F910F910F90EF90CF9056
S11359B008900890008000800E00200A089008904B
S11359C0008000800E00200A08900890EF921F9239
S11359D00F93CF93C182C0E080E080E0A020E02C50
S11359E020080808180F0E140E00002000800E0076
S11359F0000108800E00000108800E0000010A80EA
S1135A000E0000010A800E0000010C800E0000014F
S1135A100C800E00200A0400010101972096000664
S1135A2000281030D190CF910F911F90EF900890E3
S1135A300891CF93009000D000D00090CCB780A6FE
S1135A40808208821A8218821C821C82008280E072
S1135A5086000E014F4F5C01D801220000800190A6
S1135A6001102150009606800120800180070094D7
S1135A700404260406960894D8940EBE0DBECD9157
S1135A80CF9108910891CF93009000D000D000905E
S1135A90CCB70492249A048A808208821A821882DB
S1135AA0008080818D828C82808280E086000E015D
S1135AB04F4F5C01D8012200008001900110215059
S1135AC000960680012080018007009404042604C7
S1135AD006960894D8940EBE0DBECD91CF91089130
S1135AE0008020E0000000102450245FE710C13043
S1135AF09127812580950094000623252095001187
S1135B00820B010040E000C00000440F00158295A4
S1135B10009210002A01AA27A325A095B001EC0148
S1135B20EE0FEA0FEA0FEA0FEE0FEE11E841200143
S1135B300081000138202620202000008201822BD1
S1135B400100000080018095800182239101EC0115
S1135B50EE0FEA0FEA0FEA0FEE0FEE11E8418003B1
S1135B60800081008001802B8103008004040004F4
S1135B700890CF92EF920F920F930F93CF931092BE
S1135B8010000800C0E000E000E01028CC2EED2456
S1135B908D248C2D0E2D0E040A00000380070004B2
S1135BA0080080008080880098160096028080207B
S1135BB0C803580708940404000010012695200522
S1135BC0200F0101C901CF910F910F910F90EF9018
S1135BD0CF9008900890CF92EF920F920F930F936B
S1135BE0CF93109210000800C0E000E000E0102005
S1135BF0CC2EED248D248C2D0E2D0E040A000803CA
S1135C000807080408008000808088009816009621
S1135C1002808020C803580708940404000010017F
S1135C2026952005200F0101C901CF910F910F91F5
S1135C300F90EF90CF90089008902F920F924F9270
S1135C404F926F920F928F928F92AF928F92CF92C8
S1135C50CF92EF920F920F931F93CF9300900090E7
S1135C600D92CCB71C0128010A0110001000080095
S1135C7080E092808A838000802880288824882479
S1135C808824EE248700820198818980AB008900F2
S1135C9088010A2D0A040A000C018C050804080076
S1135CA008008806080408000000A0E0A000E80E30
S1135CB0081E0A1F1314A080AC00081608818A81EC
S1135CC0028002828A83880380408040089404040E
S1135CD04200D100C082C0008001200020E000E02A
S1135CE040E000800C1490003001208320019100DA
